:020000040800F2
:10000000D0040020D119000815180008171800089E
:1000100000000000000000000000000000000000E0
:100020000000000000000000000000001918000897
:1000300000000000000000001B1800081D18000848
:10004000130A000800000000830B00088F19000845
:100050009B190008CD190008FD190008FF190008B8
:1000600000000000011A0008031A0008051A000821
:10007000071A0008091A00080B1A000800000000FF
:100080000D1A00080F1A0008111A0008131A0008A8
:10009000151A0008171A0008191A00081B1A000878
:1000A0001D1A00081F1A0008211A0008231A000848
:1000B000251A0008271A000810B5042319404369BF
:1000C00007248C40A3438A401A43426110BD10B5F7
:1000D000934B994201D10C3004E0A030CB0C0424A6
:1000E0002340C01803688F4C0C40A34311401943B0
:1000F000016010BDF8B5050000260096002D01D165
:100100000120F2BD2C0054346068002804D128007E
:1001100000F0F5FBA66026702868816880277F05BF
:10012000394011D18168804A0A403A4382607F4851
:1001300000687F4900F048FC400001E00098401E44
:10014000009000980028F9D129688868074008D1F4
:100150006068102202436260A06801220243A2602C
:10016000012688686268D20600D4400700D5D0E036
:100170006068704A02400220104360608A688020F4
:100180000006D20720D4CA6818239A43AB681343E9
:10019000CB602A68C021090613699B009B086F6821
:1001A0000F401F4317616A688A420DD041088A4296
:1001B0000AD0824208D060490F68604B3B40F0276C
:1001C000BF0317401F430F60296B002900D0C10CEB
:1001D0002A69104002D05000400801E080208003CE
:1001E0000090A87E2A7E93036A7ED2031A434303BB
:1001F00013431943EA680A43009911432C22AA5C6D
:1002000057000F432021695C01290ED1002804D139
:10021000380080277F02074307E060682021014300
:100220006160A06801210143A160686A002806D0CE
:10023000E02149000140A86A084338430700286CC0
:10024000696C0143AA6C0A43E86C10433C21695C69
:10025000012902D10100012008432968CA68384BEE
:1002600013403B43CB6029680A69364B134018435F
:1002700008616A6B00212868FFF71EFFAA6B3249EC
:100280002868FFF719FF2869002806D12868816AC5
:100290000F22D2430A43826221E0802189038842EF
:1002A0001DD10022E16890000B00C3401807000F29
:1002B0000F2802D0521C082AF5D30F20C043012A70
:1002C00004D129688A6A1043886208E02A68936A20
:1002D000EB695B1E5B07DB0E9840014391620220D5
:1002E000C0432968C968194A0A40BA4207D10021A7
:1002F000A160616808400121014361600EE061680E
:1003000008401021014361600126A0683043A060CD
:1003100004E0606810210143616001263000F2BDF5
:100320000000C07CFFFFC77CE8FFFF7F0C000020BF
:10033000400D0300FFFEFFFF08270140FFFFC3FF42
:100340001902FEFF02FCFFDF04FFFF07E7FF3F8308
:10035000F1B585B000206A4650700190059854228E
:10036000805C012801D102201EE1059854300290E2
:100370000125057005980668B068400700D506E1BC
:10038000019105980069039001984068049087499D
:10039000874A884880231B06049C022C039C00D1BA
:1003A000CBE09C4201D0844207D101980068B46A36
:1003B0004003400B2043B06280E0019800680F24A6
:1003C000470302D14000C50E47E0284244D18707C9
:1003D00043D4450701D502253FE00825284201D036
:1003E00003253AE0C70601D5042536E0870601D586
:1003F000052532E0470601D506252EE0070601D582
:1004000007252AE0C70528D4850501D5092524E05C
:10041000450501D50A2520E0050501D50B251CE081
:10042000C50401D50C2518E0850401D50D2514E07F
:10043000450401D50E2510E0050401D50F250CE07B
:10044000C50301D5102508E0850301D5112504E079
:10045000400301D5122500E000250498C006C00E17
:100460006F4638700298C768BC46684607780F2008
:10047000B840674687436846007885403D43029808
:10048000C56001984068059DED6987087F1CBD42E5
:1004900014D3019D2D68C006C00E6F463870B76A30
:1004A000BC46684607780F20B84067468743A80EC9
:1004B00004406846007884403C43B46201988068F8
:1004C000019C2568059C24682D026669AE4328407E
:1004D000394D0540354365610198046823405ED07D
:1004E0001368C8431840354B9C4214D180231B0429
:1004F000184254D114682140084303431360304824
:100500000068304900F060FA01900198002846D058
:100510000198401EF8E72C4B9C4202D180235B04DB
:1005200004E02A4B9C423AD18023DB03184236D1A7
:10053000146821400843034327E09C4201D08442D1
:1005400006D101980068B46A4003400B8443B4624A
:1005500001980468234022D01368C8431840174B01
:100560009C4203D113681940194B0CE0164B9C4276
:1005700003D113681940174B05E0144B9C420ED170
:1005800013681940144B03400B43136007E00298B3
:100590004068202101430298416068464570002070
:1005A000029908706846407806B0F0BDFFFF3FFE34
:1005B000082701400400008000FFFF07001000B082
:1005C0000C000020400D0300004000B8002000B4E3
:1005D000FFFF7FFFFFFFFFFEFFFFBFFFF1B584B00E
:1005E0005422805C012801D102205DE1049854303E
:1005F00001900120019A1070049800688268042319
:1006000000911A4000D020E14C6809680291A74A85
:10061000A74DA94229D129465B059C420CD0C02395
:100620001B049C4207D1009A9268A24B1340C0223F
:1006300012041A4300E00022FFF749FD01984068C8
:100640009D49014001984160802004990968086033
:100650000098007B012804980068416802D180223C
:100660000A43F1E080229143E9E059058C4200D130
:10067000B8E0C02109048C4200D0B2E000998A6839
:10068000102402210825029E8C4FBE4254D15603ED
:1006900002D15100CC0E48E0D60701D5012146E039
:1006A0000A4244D11A4201D0042140E02A4201D03A
:1006B00003243AE0224201D0042436E0910601D519
:1006C000052432E0510601D506242EE0110601D59D
:1006D00007242AE0D10501D5082426E0910501D59B
:1006E000092422E0510501D50A241EE0110501D597
:1006F0000B241AE0D10401D50C2416E0910401D595
:100700000D2412E0510401D50E240EE0110401D590
:100710000F240AE0D10308D4910301D5112404E089
:10072000510301D5122400E000240121A140A03092
:1007300002681143016058E0560302D15100CC0E0B
:1007400048E0D60701D5012146E00A4244D11A42C9
:1007500001D0042140E02A4201D003243AE02242A1
:1007600001D0042436E0910601D5052432E051067B
:1007700001D506242EE0110601D507242AE0D10573
:1007800001D5082426E0910501D5092422E0510570
:1007900001D50A241EE0110501D50B241AE0D1046D
:1007A00001D50C2416E0910401D50D2412E051046A
:1007B00001D50E240EE0110401D50F240AE0D10367
:1007C00008D4910301D5112404E0510301D512246A
:1007D00000E000240121A140A030426811434160A3
:1007E00003E000220299FFF772FC00980068334989
:1007F00088420198406811D1314901400198416017
:10080000802149000498006801600098007B01285D
:100810000498006811D041682A4A14E02A4901402E
:100820000198416080218900049800680160009867
:10083000007B01280498006803D14268114341609D
:1008400003E04168214A0A40426000980068184964
:10085000884211D104990A68062300990969D4686D
:10086000E40864001C40A140009C6469D268D2087E
:10087000520013409C4003E000990969009A5469B2
:10088000049A1268203283029B0F8502ED0F5819DB
:100890008000101802680E4B1340090419430C43E2
:1008A000046000200199087005B0F0BDFFFF8700CB
:1008B0000000C07CFFFF07FCFFFFFEFFFFFF1700EB
:1008C000FFFFFDFFFFFEFFFFFFFFFBFFFFFDFFFF41
:1008D00000F000F081B03748012142680A434260CD
:1008E00042681140009100998021490502680A433D
:1008F0000260006801400091009801B0704710B597
:1009000086B004001422002101A800F078F82068C5
:10091000294988421CD1294880214903C2680A43D9
:10092000C260C268114000910099012102680A4327
:1009300002600068014000910098042001900320AB
:1009400002900020039001A9A020C00500F062F8E9
:1009500006B010BD10B586B004001422002101A815
:1009600000F04DF820681649884220D10220134C2F
:100970002168014321602168084000900098C02050
:10098000800001901220029001200390002004902A
:100990000620059001A90B4800F03CF88020800358
:1009A000A1680143A160A16808400090009806B0CA
:1009B00010BD00003C1002400024014034100240F1
:1009C0000054004000040050094214D088420FD364
:1009D0000122030C01D100041204002300185B4122
:1009E0008B4200D35B1A5241F8D3190010007047B4
:1009F00001000020704708B500F0C2F808BD10B52E
:100A00000400080011000200200000F0BBF82000E4
:100A100010BDFEE7FCB50022012300932CE0052762
:100A200003E0514FB842FAD10327A74037432F6064
:100A30004E4C2568DC4325404E68F60300D51D4327
:100A40004A4E3560756825404F68BF0300D51D4389
:100A50007560474D2E6826404D68ED0200D51E4357
:100A6000434D2E606E6834404E68B60202D52600B3
:100A70001C0034436C60521C0C682300D34066D0C9
:100A8000009B934001932340F5D04C68022C01D089
:100A9000122C10D1D408A40005192C6A97001C262A
:100AA0003E400F27B740BC430F69BC46370066463F
:100AB000BE4026432E62066854000327A740FD432C
:100AC0002E400F79BF07BF0FA740374307604E681E
:100AD000012E05D0022E03D0112E01D0122E11D1DD
:100AE00086682E40CF68A740374387604768019EDD
:100AF000B743BC464E683709009E3E409640674665
:100B00003E434660C66835408E68A6402E43C660A8
:100B10004C68E400AFD5174C9508AD0065192E68F8
:100B2000D70018243C400F27A740BE43A027FF054D
:100B3000B84201D1002778E70F4FB84201D1009F9A
:100B400073E70E4FB84200D06BE702276DE7F3BDA5
:100B50000069084000D00120C0B27047002A01D0CF
:100B60008161704781627047000C0050801802401C
:100B700000180240601802400004005000080050B5
:100B80007047FEE7094202D0491E4254FCD170472B
:100B9000FEB507001BD0A84C3878C00719D5A1684E
:100BA00038200840E1688025AD02102808D1880768
:100BB000800F032806D079686808814234D13BE071
:100BC0000828F8D12068054003D07868002800D1B3
:100BD000B7E1387880077BD5A06838210140E2680A
:100BE000B948BA4D10294ED19207920F022A4CD023
:100BF000F968002900D196E021680840396901436D
:100C000021602068A10D0143216000F0ADFA3E0093
:100C100007002068400500D57DE000F0A5FAC01B64
:100C20000328F6D30320FEBDA022D202914207D1B1
:100C3000216882000A43226021680843206007E09F
:100C40002068A349014021602068A2490140216039
:100C5000786800280BD000F087FA0600206828404A
:100C6000B7D100F081FA801B6528F7D3DAE700F0EE
:100C70007BFA060020682840ABD000F075FA801B94
:100C80006528F7D3CEE70029B2D12268520502D5F4
:100C9000FA68002A3ED0626815407A6912022A4337
:100CA000626000290ED12168084039690143216042
:100CB000A648012122689204520F9140FFF784FE5A
:100CC000A3490860A348006800F054FA002821D125
:100CD0000225387800070AD5A06838210140182974
:100CE00031D1206E284002D0B869002812D038785F
:100CF000400700D4A9E000200190A06838210140FD
:100D0000202942D1E06D054000D19EE0B86800285E
:100D100000D09AE015E16068054070690002284340
:100D200060603700D4E720688B490140216000F003
:100D30001BFA050020684005CAD500F015FA401BD3
:100D40000328F7D36EE7B8690028206E0ED0012182
:100D50000143216600F008FA0600206E2840C6D143
:100D600000F002FA801B0328F7D35BE701218843D8
:100D7000206600F0F9F90600206E2840B7D000F098
:100D8000F3F9801B0328F7D34CE7E806E16B014039
:100D900008D1E16B0143E163E16B084000900098EA
:100DA000012001906D4D2868C00512D4A00D00905F
:100DB000286800990143296000F0D6F906002868E8
:100DC0000099014005D100F0CFF9801B0328F6D32C
:100DD00028E7B8680121012805D00528E06D06D173
:100DE00004220243E265E06D0143E16505E08843CA
:100DF000E065E06D04218843E0650226B8680028BC
:100E00000CD000F0B1F90500E06D304016D100F0D3
:100E1000ABF9401BA6498842F6D303E700F0A4F9DA
:100E20000500E06D304009D000F09EF9401BA0495C
:100E30008842F6D3F6E600BF001002400198002871
:100E400003D0E06B9B490140E163F86900287AD048
:100E5000A16838220A40102A54D08026B604964948
:100E60000228206838D10140216000F07DF905009A
:100E70002068304005D000F077F9401B0328F7D3F5
:100E8000D0E6E0688D490140386A0843796A014339
:100E9000B86A00020843F96A0143386B0843E0600E
:100EA0002068710801432160E068F1000143E160BE
:100EB00000F05AF905002068304044D100F054F9A0
:100EC000401B0328F7D3ADE6FFC7FFFFFF80FFFFFE
:100ED000FFFFFEFFFFFFFBFF01402160E0680321F1
:100EE0008843E060E06897490140E16000F03CF928
:100EF00005002068304026D000F036F9401B03285A
:100F0000F7D38FE601281CD0E0688107890F3A6A81
:100F1000914216D1702101407A6A914211D1FE218D
:100F2000C9010140BA6A120291420AD1F82189032B
:100F30000140FA6A914204D1400F4007396B884260
:100F400001D00120FEBD0020FEBD00000024F40001
:100F50000C00002004000020FFFEFFFF0070004096
:100F6000F8B5070066D00091774800684007400F49
:100F7000884218D2744C20680721884300990143A5
:100F8000216000F0F1F8009D060020684007400F46
:100F9000A84207D000F0E8F8801B45498842F4D306
:100FA0000320F2BD00953968694C022001420CD043
:100FB000490704D5A168E022D2010A43A260A168D2
:100FC000624A0A40B9681143A1600725ED433978A8
:100FD000C90732D57968012918D12068800329D53D
:100FE000A06828400143A16000F0BEF83E00070061
:100FF000A068382101407068C00081421CD000F018
:10100000B3F8C01B2A498842F2D3C9E7022902D1AA
:101010002068800103E0002903D120684005DFD467
:1010200008E0032903D1226E1040D9D102E0E26D1D
:101030001040D5D10120F2BD37000098424909681F
:101040004907490F884217D23F4800680540009879
:1010500028433D49086000F087F8009D06003A48A3
:1010600000684007400FA84206D000F07DF8801BC2
:101070000F498842F3D393E73878400705D5A06835
:1010800034490140F8680843A06000F019F832497B
:10109000A2681205120F9200895CC906C90EC840E9
:1010A0002E4908602E48006800F064F8F2BD000088
:1010B00089130000FFFFFFEFFFFFFFFE8C80C11FC1
:1010C00030B507212748224C3823A2681A4006D1A0
:1010D00023680122DB0A19408A4011001EE0420801
:1010E000A5681D40082D01D1100030BDA5681D4028
:1010F000102D16D1E368E5682D092940491C7F258C
:101100009B079B0F032B00D11000FFF75DFCE168EC
:10111000090A0D406843E168490F491CFFF754FC78
:1011200030BDA0681840202802D18020000230BDC8
:10113000A0680340182B02D1FA20C00130BD002066
:1011400030BD0000FFFFFEEF00200240FFF0FFFF78
:1011500000100240FF8FFFFF6C1800080C000020F9
:10116000040000200024F40001480068704700BF1C
:101170000000002070B5060000240F4DA96800296A
:1011800016D0FA208000FFF71FFC01000B48006812
:10119000FFF71AFC00F035F8002809D1042E07D219
:1011A000002231000020C04300F027F86E6000E00C
:1011B0000124200070BD00BF000000200C000020B2
:1011C00010B5C20018231340FF249C40E243890756
:1011D000090E9940030004D414489B089B00C018D2
:1011E00006E0134B0007000F08388008800018182D
:1011F00003681A401143016010BD80B5FFF7E0FF9E
:1012000001BD10B5401E80214904884201D3012050
:1012100010BD084C606003210020C043FFF7D0FFE1
:101220000020A0600721216010BD000000E400E064
:101230001CED00E010E000E0F0B589B000F0FCF833
:1012400000F0B0F8142200216846FFF7D8FB71487F
:10125000016801220A4302600168CA07D20F0592A1
:101260000599022102680A43026000680140059165
:1012700005988025ED01002229006748FFF76EFCE4
:10128000042600960320019000240294A027FF0565
:1012900069463800FFF7BEFB40200090019402949D
:1012A00069463800FFF7B6FB0095012001900294D3
:1012B000039469465848FFF7ADFB10200090019455
:1012C000029469465448FFF7A5FB1822002103A8A1
:1012D000FFF795FB0C2200216846FFF790FB4F4D6E
:1012E0004F48286030076860AC60EC602C616E612C
:1012F0002C83AC760120E86120216C546C62AC62D6
:101300002C216C542C636C63AC633C216C54EC64F6
:101310002800FEF7EFFEC0200004049003A9280077
:10132000FFF75CF93F480090019402946946280059
:10133000FFF70EF82E0064363B4870603B48B06003
:10134000F460012030617461B461F46134627462EC
:101350002800683000F084F800212800683000F090
:10136000D9F800212800683000F0F1F8304F01E092
:101370007470B47038780028FCD03C7000F010F91C
:10138000F070F0780028F3D07078002807D0B0789B
:101390000028EFD16420285C401C3070EAE701206F
:1013A0007070E7E710B598B0342200210BA8FFF762
:1013B00026FB102200216846FFF721FB1C2200219A
:1013C00004A8FFF71CFB8020800000F0F3F80A203F
:1013D0000B90F6300E9000240F94402010900120C6
:1013E000119012940BA8FFF7D3FB072000900194F3
:1013F0000294039400216846FFF7B2FD0D48049063
:101400000794099404A800F0FBF8002000F0A6F966
:1014100018B010BD34100240000400501C00002021
:101420000024014004000008005400405B3D3000EF
:10143000120000204040000010B500240748016859
:10144000820D0A4302600020FFF794FE002801D0BD
:10145000012401E0FFF73EFA200010BD0020024009
:1014600070B5040001D1012070BD25004035002673
:101470006878002803D12E702000FFF76BFA242033
:1014800068702068016801229143016060681E490C
:1014900001402068016121681C488A6802408A6016
:1014A000E1680129A16801D1C24301E0842212024E
:1014B0000A4321688A60E168022903D18021090179
:1014C0002268516021684A68114B13434B602168C0
:1014D000CA681040C860206961690143A0690002C0
:1014E00008432168C860E069216A014320680160FF
:1014F0002068016801220A4302606E602020687043
:101500002663AE70002070BDFFFFFFF0FF7FFFFF7E
:101510000080000270B5020040325378202B14D1B5
:101520004023C35C012B10D001231370242454707A
:10153000046825689D43256004682568164E2E4082
:1015400026600468256829431CE0022070BD70B540
:10155000020040325378202B12D14023C35C012B70
:101560000ED00123137024245470046825689D4311
:10157000256004682568094E2E400902314301E0C8
:10158000022070BD2160006801680B4303602020C9
:1015900050700020107070BDFFEFFFFFFFF0FFFFE5
:1015A00080B5802189010248FFF7D2FA02BD00BF51
:1015B0000008005010B50E4C21680E4A0A40024344
:1015C0002260610D884210D10B4800680621484313
:1015D0000A49FFF7F9F9401C00E0401E616949051E
:1015E00003D50028F9D1032010BD002010BD000054
:1015F00000700040FFF9FFFF0C00002040420F0088
:10160000FEB5040000206A4610704E4D2168890323
:1016100055D5019080204005296B014008D1296BE8
:1016200001432963296B0840019001980120019032
:1016300045480068A90D014343480160FFF794FD48
:10164000060041480068C00505D4FFF78DFD801BEA
:101650000328F6D323E0296DC020800008403B4FCB
:1016600000280ED0A16988420BD0286D3840296D22
:10167000802252020A432A65296D354A0A402A65AA
:101680002865C0070FD5FFF76FFD0600286D80079E
:1016900009D4FFF769FD801B2E498842F6D3032049
:1016A0006946087004E0286D0740A0693843286542
:1016B0000198002803D0286B27490140296320782E
:1016C000C00705D5A86C0321884361680143A9645C
:1016D0002078800705D5A86C0C218843A1680143B8
:1016E000A9642078400605D5A86C3C490140E06813
:1016F0000843A8648020C001216801400DD0A96C76
:101700008900890862690A43AA64616902049142F6
:1017100003D1296882000A432A60216809050DD592
:10172000A96C2F4A0A4021691143A96421698142A9
:1017300004D1286880214902014329606846007865
:10174000FEBD00000C10024000700040FFFCFFFFD7
:10175000FFFFFEFF89130000FFFFFFEFF0B587B02A
:1017600006000024009401271E4D28683843286095
:1017700028683840019001980420029003200390CB
:101780000590049402A9A020C005FFF743F938078B
:10179000A968014007D1A9680143A960A968084068
:1017A00000900098009710480068C00502D400F02F
:1017B00021F80124A86A0D4901400E433806304340
:1017C000A862002C01D000F01BF80098002803D07C
:1017D000A86807490140A96007B0F0BDFFCFFFFF2F
:1017E000FF3FFFFF3410024000700040FFFFFFFC8E
:1017F000FFFFFFEF05480168820D0A430260704752
:1018000002480168024A0A400260704700700040C6
:10181000FFFEFFFF7047FEE77047704738B500F0E6
:101820001DF80C490C488288531801221C0401D170
:1018300002700523C4886418250401D142700A246B
:10184000058969180D0401D1827064218380C480E8
:10185000018131BDFFFF0000100000200248016837
:1018600082688918016070470000002000000000B5
:101870000000000000000000000000000000000068
:101880000000000000000000000000000100000057
:101890000200000003000000040000000600000039
:1018A00007000000080000000900000070B40123D8
:1018B000002413E00168001D194202D04D466D1E40
:1018C00049190C60091D121F042AFAD20D0096074F
:1018D00001D50C80AD1C1A4000D02C700268001D90
:1018E000002AE7D170BC704730B401220EE00368D3
:1018F000C31844680830144202D04D466D1E641966
:101900001D6825601B1D241D091FF9D10168001DDC
:101910000029ECD130BC704710B507497944183123
:10192000064C7C44163404E0081D0A688918884770
:101930000100A142F8D110BD0800000028000000FD
:101940006DFFFFFFB40000001C000020000000003D
:1019500099FFFFFF1C00000058000000000000205D
:101960000000000000F00DF8002801D0FFF7D4FFC0
:1019700000BF00BF002000BF00BFFFF75DFC00F00C
:1019800002F80120704780B500F002F801BDFEE7C3
:101990000746384600F002F8FBE7FEE780B500BFD7
:1019A00000BF024A11001820ABBEFBE72600020070
:1019B0000000000004000000010000000024F4000A
:1019C0000000000005000A0064000000FEE70000BF
:1019D0000148804701480047E1190008F119000853
:1019E00080200005014908607047000008ED00E014
:1019F00000BF00BF00BF00BFFFF7B4FFFEE7FEE778
:101A0000FEE7FEE7FEE7FEE7FEE7FEE7FEE7FEE7AE
:101A1000FEE7FEE7FEE7FEE7FEE7FEE7FEE7FEE79E
:081A2000FEE7FEE7FEE7FEE72A
:04000005080019F1E5
:00000001FF
