:020000040800F2
:10000000200A002021530008CD500008CF500008DE
:1000100000000000000000000000000000000000E0
:10002000000000000000000000000000D1500008A7
:100030000000000000000000D3500008D550000868
:100040001B140008000000006F1400087B19000852
:100050007F1900088319000877320008AF4C0008A8
:1000600000000000BB4E000807520008F7520008CD
:10007000455100081F5300084D53000800000000C0
:100080004F530008515300085353000855530008BC
:1000900057530008595300085B5300085D5300088C
:1000A0005F5300086153000863530008655300085C
:1000B0006753000869530008FDB5B6B03E9801AA21
:1000C0000023002418C2069104A93B2288540F93F0
:1000D00019A8401C33900F206946887013E0379CA4
:1000E0003500369F21780698B8470690002800D141
:1000F00040E10F98401C0F90641C6D1EF2D13697A2
:100100003798801937903798007825280ED100202D
:1001100009900A900B900C900D900E9000210224F3
:100120000420189008201490379D0FE001AA0021A8
:10013000C943379801F0C0F8060001D10F981BE1C0
:10014000CDD50126DCE70800012101436D1C28788C
:100150002028F8D023280BD02B2804D02D2804D019
:10016000302808D00AE02143F0E708001899ECE7AE
:1001700008000821E9E708001021E6E72A280FD146
:10018000389802681068121D389B1A601190002878
:1001900004D5424211920800189901436D1C12E0E7
:1001A00000201190B84A09E0119B934205DA9E00A5
:1001B000F3185B001818303811906D1C2878030074
:1001C000303B0A2BF0D328782E2803D00020C043E0
:1001D000109027E06D1C28782A2808D138980068EC
:1001E0000268001D389B186010926D1C1AE02D28C3
:1001F00002D12D226D1C00E0002200201090A24BA5
:100200000BE0002A08D1109E9E4205DAB700BE1905
:1002100076003018303810906D1C28780600303E7B
:100220000A2EEED304A801872E7831005648784470
:10023000FF30573001F052F8002801D06D1C00E06B
:10024000002604A83A214654405C682804D1287846
:1002500068280BD1622005E06C2807D128786C282B
:1002600004D1712004A93A2288546D1C24A8089056
:10027000287869460870681C379068460578280019
:10028000253834D01C3800D19AE1001F022800D84C
:1002900096E10E3831D0401F01D100F010FD093831
:1002A00000D18DE1801E01D100F0A7FD401E01D1DB
:1002B00000F053FD401E022800D881E1001F01D14B
:1002C00000F04BFD401F00D1D0E0401E01D100F0F6
:1002D000F6FC401E78D0C01E27D0801E01D100F051
:1002E000EEFCC01E01D100F0EAFC00F0A5FD2520C7
:1002F00024A908700120099034E06C2004A93A2256
:100300008854389800680268001D38990860002AEF
:1003100053D104A83B21405C00284AD00024E44388
:1003200058487844FF305F3018E004A83A21405C18
:100330006C28E6D0389800680468001D3899086079
:100340000794002C22D104A83B21405C002815D042
:100350000024E4434D487844FF30333000F0CCFFB4
:10036000201A07D124AA04A9369800F074FD0028A9
:1003700000D4C8E60020C04339B0F0BD44487844FA
:10038000FF300F300790EDE7F44D0000109D002D79
:1003900003D5200000F0D4FF09E02A00002120004E
:1003A00000F0D6FF002801D0001B00E028000A90D2
:1003B000D8E7384A7A44FF32233A04A9369800F045
:1003C000D4FD0028CED5D5E7389800680268001D16
:1003D000389908600020C0430021104004AA03C2DD
:1003E00024A80790089B3C2404A803C8002904D132
:1003F000002802D1109A002A14D0641E6D46AD78F0
:1004000005403035EEB23A2E00DB27351D55000988
:100410000A071043090901D1002803D0079A1D19C2
:10042000AA42EAD33C20001B0A901919079110999F
:10043000884207DA081A0C9004A8018FB94A0A40CA
:1004400002878FE700298DD504A93822895C142200
:100450000A40102A86D11199099A891A0C9A891A88
:10046000081A002800DC7DE70C907BE704A83B21FC
:10047000415C002910D00024E4434F487844FF3009
:1004800039306BE7504D0000CBCCCC0C284D000030
:10049000404D00005C4D00003A21405C62286BD06A
:1004A00068281CD06A2847D06C2806D0712855D0FF
:1004B000742833D07A2823D06FE038980068016818
:1004C000001D389A1060002906D10024E4433B48FF
:1004D0007844FF30173841E70F98086042E73898B2
:1004E00000680168001D389A1060002905D10024B9
:1004F000E44332487844C43030E70F98088031E74D
:10050000389800680168001D389A10600029E3D10E
:100510000024E44329487844A2301FE73898006853
:100520000168001D389A10600029D5D10024E443E9
:1005300022487844863011E7389800680268001D28
:1005400038990860002A05D10024E4431B48784408
:100550006A3003E70F98C11703C203E738980068B1
:100560000268001D38990860002AF3D10024E44392
:10057000124878444630F1E6389800680168001D5A
:10058000389A1060002905D10024E4430B487844D0
:100590002A30E3E60F980870E4E6389800680168AE
:1005A000001D389A1060002996D10024E4430348C6
:1005B00078440830D2E600BFCC4B0000E04B00008E
:1005C00038980268D21D072082433898026003CA17
:1005D000389B1A6004AA03C2C80F02D009982D21C3
:1005E0000AE004A8008F204202D009982B2103E0E2
:1005F000C00705D50998202124AA1154401C099050
:1006000024A809994318079319AA04A803C816AC8B
:1006100003C468460078202101436846417061297F
:1006200009D01098002801D5062003E003D16729DE
:1006300001D10120109004A803C808004C006415E3
:10064000641C14D1090312D003200A90613D1A2DB5
:1006500004D251497944FF31413103E04F49794493
:10066000FF313B310322180000F098FE7AE6002C9F
:100670000BD1000309D103200A90613D1A2D18D334
:1006800047497944FF311B31ECE704A803C834AB78
:1006900003C334A830C8BEA003C820402940802529
:1006A0006D03A9420AD2002634AB30CB60406940CA
:1006B0000EE03C497944FF311339D3E7080DB1A668
:1006C000C0CE361834A803C8B34D0D40AF492943F6
:1006D00004AB03C36846407861280FD107983021E6
:1006E0000170811C079169460978612901D178213F
:1006F00000E0582141700998801C099004A803C8A3
:10070000A3A430CC04400D4002D1002C00D186E1DE
:1007100068464078612800D0BFE01098002803D5D3
:10072000212002E0EFFF0000401C1590159F7F1C68
:1007300016A803C80022002300F03DFE04A830C81C
:1007400002D2802000064540361F039619A90A7080
:1007500019A8461C002F57DD200029000022802305
:100760005B0300F041FE4FD828004A00530D1A00E9
:100770001C32002B18D0002A16DDB54B9A4205DB3F
:100780001B05802212061040184310E082480840E2
:10079000110501430D000CE05C4A00005C4A0000BA
:1007A000604A0000584A00008022120610400024CF
:1007B00005002000290000F031FE1690FF1F002FD9
:1007C00009DD00F065FE02000B002000290000F0AA
:1007D000CCFE04000D00F01D07210F226B469A701D
:1007E000169A002A0BDD491E09D4401E6E46B678C3
:1007F000164006701211F4E7401E00220270491ED6
:10080000FAD5C61D002FA7DC19A83399711A19AAA9
:10081000521C159B0C00994200DD1C00002C35D4A5
:100820008C4206DA411C095D082902DB6946897899
:1008300000E00021230019ADED1801E0641E6D1EDB
:100840005B1E2E788E42F9D00F2904D1411CC95C61
:10085000491C401CC154002B04D519AA641C0398E0
:10086000001D0390611E11D45318684600781D784E
:100870003035EEB23A2E02DB06003A3EAD191D705D
:10088000491E5B1E0029F2D56946087010980028A1
:1008900000D4C3E0601E1090C0E016A830C86D0000
:1008A0006D086D49300048436C4900F0D5FE039057
:1008B00007200399401A05DD02002000290000F0FE
:1008C00044FC0AE042420020654900F03EFC020080
:1008D0000B002000290000F0EEFE6A465278662ADE
:1008E00002D1039A0A3200E00622109B9A18142AB9
:1008F00000DD142219AB30241C705C1C02E016A829
:1009000003C8159A002A49DD16AB03C3159216A831
:1009100003C800F095FD239006460834189D30006A
:100920000A2100F0ADFE0F0030000A2100F0A8FE01
:1009300006003037601E077030000A2100F0A0FE6C
:100940000F0030000A2100F09BFE0600A41E303785
:1009500027706D1EE3D108341598083815900028CB
:10096000CDDD239800F084FD02000B0016A803C81B
:1009700000F0FBFD00223B4B00F0FEFE16AA03C276
:10098000C5E700BF02FCFFFFFFFFFFFF0000E03FE5
:10099000FFFFFFFFFFFFFF7FFFFF0F803398201A4D
:1009A00019A94A1C039902E0401E491E521C1378E3
:1009B000302BF9D0039169464978662902D1039911
:1009C000491C06E069464978652901D1012100E00A
:1009D0000021109B5C18A04200DA441E002C1DD49C
:1009E000844204DA105D342801DD392100E0302131
:1009F0002300501EC51801E0641E6D1E5B1E2E787C
:100A00008E42F9D0392902D1D15C491CD154002B36
:100A100004D50200641C0398401C0390039D0392BC
:100A20006846067800F052FC406A00786946087013
:100A3000109F20B2002804DC0124064878441430BA
:100A400003906846407866280ED16D1C26E000BFF2
:100A5000FF070000B047000097750000A086010066
:100A60000000F03F84D7974168464078672847D117
:100A700028B20321C943884246DBB84244DA6D1CE0
:100A800004A8008F1499C0B2084203D120B2B84222
:100A900000DA070028B23F1A00D500270A99079804
:100AA00040182EB2002E00DDA9E0491C0A91302129
:100AB0000170002F05DC04A8008F1499C0B2084211
:100AC00006D00A98411C0A9169460978079A115480
:100AD0007042874200DA7D422DB268420D907D1946
:100AE00020B2854200DA2C0024B20B942200039934
:100AF00007980A9BC01800F051FC281B0E90C4E018
:100B0000612E14D1702615E020B2B84206DA04A98D
:100B1000098F149AC9B2114200D107007F1E00D577
:100B20000027672E01D1652604E0452602E0412E0C
:100B300000D150260A98411C0A9103990978079A16
:100B400011540398411C002F05DC04A8008F149A4F
:100B5000C0B2104219D00A98421C0A926A46127812
:100B6000079B1A54002F10DD641E20B2874200DA62
:100B70003C0022B207980A9BC01800F00FFC24B278
:100B80000A9800190A90381B0D9007980A99401886
:100B9000067029B2002903D42B214170871C03E081
:100BA0002D224270871C4D42002414A928000D00FC
:100BB00005E00A2100F050FD2970641C6D1C00B294
:100BC0000028F6DC012C06DC20203043652802D109
:100BD000302038707F1C002C09D1302038707F1CE9
:100BE00007E0641E14A8005D303038707F1C002CB4
:100BF000F7DC07980A994018381A0B9045E021B2A3
:100C00002AB291421ADA22B2039900F0C7FB24B249
:100C10000A9800190A90311B0D91002F05DC04A9D8
:100C2000098F149AC9B2114206D069460978079A09
:100C300011540B98401C0B900E9726E0039900F07E
:100C4000ADFB0A9880190A90641B002F05DC04A9EB
:100C5000098F149AC9B2114205D0411C0A91694604
:100C60000978079A115420B2874200DA3C0022B278
:100C70000398811907980A9BC01800F08FFB24B2D3
:100C80000A9800190A90381B0D9004A83821405C7E
:100C900014210140102901D0FFF764FB09980A993B
:100CA00040180D9940180B9940180E994018119949
:100CB000884201DBFFF756FB081AFFF7D5FB04AAB1
:100CC0003A20105C622808D068280ED06A2814D018
:100CD0006C281DD0712810D01AE038980168086877
:100CE000091D389B1960C0B218E03898016808687F
:100CF000091D389B196080B210E038980368DB1D2D
:100D0000072083433898036003CB389C236006E0B8
:100D1000389801680868091D389B1960002104ABE8
:100D200003C3108F1499C0B208425BD004A803C853
:100D3000002901D1002855D06846007820210143C0
:100D400078294FD1099824A930220A54401C421C0A
:100D500009926A4612780A5444E004AA3A20105CC8
:100D6000622808D068280ED06A2814D06C281DD0BC
:100D7000712810D01AE0389801680868091D389B5E
:100D8000196040B218E0389801680868091D389B5E
:100D9000196000B210E038980368DB1D0720834318
:100DA0003898036003CB389D2B6006E038980168C3
:100DB0000868091D389B1960C11704AB03C30029DB
:100DC00002DA09982D2109E0108F204202D00998FB
:100DD0002B2103E0C00705D50998202124AA11542E
:100DE000401C099024A8099940180790684601788A
:100DF00004A800F01AF9FFF7B5FA04A83A21405CFC
:100E00006C280BD001200990389800680168001DFB
:100E1000389A106024A80170FFF7A4FA3898006887
:100E20000168001D389A1060149100201590C0438D
:100E3000109014AAFFF7C1FA252024A908700120F8
:100E4000099068460078002801D1FFF78BFA4D70B1
:100E50000994FFF787FAFEB506000D001700686BCE
:100E60006969401A296A401AA969401A696A401AD0
:100E7000E969401AA96A401A01903820285C4007A5
:100E800010D4202069460870019800280ADD019CD2
:100E900001236A462900300000F080F9002860D163
:100EA000641EF5D13A006B692900300000F076F934
:100EB000002856D13027684607702C6A002C09DDBF
:100EC00001236A462900300000F068F9002848D163
:100ED000641EF5D1AB69EA682900300000F05EF9C4
:100EE00000283ED1684607706C6A002C09DD01239A
:100EF0006A462900300000F051F9002831D1641E03
:100F0000F5D1EB69E868A96942182900300000F0C2
:100F100045F9002825D168460770AC6A002C09DD28
:100F200001236A462900300000F038F9002818D162
:100F3000641EF5D13820285C400710D52020694672
:100F40000870019800280ADD019C01236A462900E7
:100F5000300000F023F9002803D1641EF5D10020F1
:100F600001E00020C04303B0F0BDF0B5A7B004001D
:100F70000D0016002F6B002F00D5854F00F0BEFC32
:100F8000696B081803A9002200230CC1812838D2FC
:100F9000029206940095002425E0AF4234DB0098CD
:100FA0004069401981280BD30098446307AA00992F
:100FB0000698FFF750FF0290002825D4009844615E
:100FC0000098406905902A0001A907A8059BC01850
:100FD00000F0E4F90598401900994861306800284C
:100FE00012D0361D7F1B002F0EDD03AA316801A829
:100FF00000F067F9050004D430680028CDD16D1EDB
:10100000CBD50020C0430EE0069B009C0298002830
:1010100004D107AA21001800FFF71DFF002802D104
:1010200000216161616327B0F0BDF2B586B00400B4
:1010300025696F2901D1082707E0084620210143CF
:10104000782901D00A2700E010273C2603CC083C71
:1010500004AA03C26A46127E642A03D06A46127E3C
:10106000692A09D1002907DA04A803C8002200234D
:10107000121A8B4104A80CC004A803C800290DD182
:1010800000280BD1206B002808D1082F3BD1382035
:10109000205C000737D53B26302033E002940095D2
:1010A00004A830C8761E0196200029003A00FB17DC
:1010B00000F029FC3032D0B23A2803DB6846007ECB
:1010C0005138121800988255200029003A00FB1769
:1010D00000F019FC04000D0001D1002C05D002988D
:1010E000C068009989198842DCD3029C009D082FB2
:1010F00009D13820205C000705D5A85D302802D032
:10110000761E3020A8553C20801BA061A919E16003
:10111000216B884206DA081A2062208F1D4901409F
:10112000218710E000290ED53821615C14220A4085
:10113000102A08D1616B6269891A226A891A081A11
:10114000002800DD206207B0F0BDF8B50026124F80
:1011500004000D00009214E0C00707D532003B00E8
:101160002000290000F008FB04000D00009840104A
:1011700000903000390032003B0000F0FDFA06001C
:101180000F0000980028E7D120002900F4BD0000DE
:10119000FFFFFF7FEFFF000000002440F8B50024B0
:1011A000002B11D007000E0014001D002178B0683C
:1011B000B847B060002809D0F06A401CF0620020F7
:1011C000641C6D1EF2D104002000F2BD0020C0435B
:1011D000F9E7F1B40168421841684808131800980B
:1011E0008068C9071ED5494640181BE01778521C75
:1011F0000770401C761EF9D1002C13D01678521CB3
:1012000089080D40032D01D11578521C290271184F
:101210004D424119A41C05D00D78491C0570401C95
:10122000641EF9D19A420FD01178521C032503266F
:101230000E4002D11678F61C521C0C090F2CD9D185
:1012400014780F34521CD5E700980C30F2BC70476C
:101250002048704730B45368D41803E05B1C491E23
:10126000641C401C042B06DA002904D00578257084
:101270000578002DF2D1536030BC704738B5002995
:101280000ED01D001400FFF7E5FF616820006A6BB7
:1012900090470122D243811A02D0491E02D004E0B5
:1012A000012000E00020C04332BD0021616032BD5A
:1012B00080B5DA6B904702BD80B5064BFFF7DEFFC5
:1012C00002BD80B5034BFFF7F3FF02BD0248704734
:1012D00000000000E4000020AC000020C9B2027849
:1012E0008A4203D0401C002AF9D1002070470268CE
:1012F000531C03601170704780B5002801D100BFF6
:1013000007A006490B68002B03D022220021984732
:1013100001E000F02DFB222002BD00001806002095
:10132000636F6E73747261696E742068616E646C51
:1013300065723A20626164206D6573736167650050
:10134000431C0178401C0942FBD1C01A70472E0093
:10135000C9B2521E05D30378401C8B42F9D1401EFE
:10136000704700207047430070B4103A03D378C927
:10137000103A78C0FBD2530701D318C918C001D561
:1013800008C908C0D20704D30B880380891C801CBD
:10139000002A01D50B78037070BC70478B0701D110
:1013A0008307E1D0124205D00B78491C0370401C22
:1013B000521EF9D1704730B4012464054D00EC424F
:1013C0000BD85D00EC4208D80C001C4364000443B9
:1013D000144304D2994200D1904230BC7047FCD0F3
:1013E0008B42FAD18242F8E730B4012464054D0003
:1013F000EC420BD85D00EC4208D80C001C436400A2
:101400000443144304D28B4200D1824230BC704763
:10141000FCD09942FAD19042F8E7FEE7F4464A1828
:1014200005D200F00FF801D580174008604700F0A2
:1014300009F80121C907884200D9080040426047E5
:101440004A1812D2400DC90208430121C9070843B6
:10145000520D40210901521A521C06D452421F3229
:1014600001D4D0407047C017704700207047FEE796
:10147000010042221201D21E004207D002D4521EA5
:101480000018FCD5C10A40051205891870470000F4
:101490000100EED54042F446FFF7EBFF0122D207F0
:1014A00011436047F0B40125ED070F005F404FD4B2
:1014B0008B4200D1824205D98446100062468C4698
:1014C00019006346DF184C18640D7F0D3AD0661C76
:1014D000760537D0E61B352E34DCDB022B43DB0AE6
:1014E0000C0DC9022943C912202E0DDB1700203E26
:1014F00006D01F00F741F3405F400026012A7741E4
:10150000C01871410DD217E01700F741F240574063
:10151000F3415A40B340F3405A40002680185941E5
:101520000AD3A21C52050FD0C207012F7241170027
:101530004008CB0718434908641C24054208AF4102
:1015400070416141F0BC7047641C21050020F9E73F
:101550006B4010E06B40ABE7F742F3D1E943F1E7B2
:101560002442EFD100200021ECE7F0B40125ED0783
:101570000F005F40EED40C00871A9C4105D2C01BBF
:10158000A141D219634169406B40AE0ADF184C1883
:10159000F442E1D2640D7F0DE2D0E61B362ED1DCA1
:1015A000DB022B43DB0AA4460C0DC9022943C90AFE
:1015B000012E28DC04D1D6075208DF073A435B0826
:1015C000EF0A76429041994114D039423BD1B61985
:1015D00040414941761C394204D1761C00184941EA
:1015E0003942FAD0B9436746B74208D9A41B24054B
:1015F0002143A7E70042EAD13642E8D1A2E7E40A54
:10160000E10700209EE7202E0BDD203E1F00F34067
:10161000F7415F40012A002257417E4298419141A3
:101620000BE01700F741F2405740F3415A40B340F6
:10163000F3405A407E42904199410A0303D2641E0E
:10164000B619404149410027641E24054208AE41B5
:1016500078416141F0BC7047CA0F00D04942031085
:101660005A400DD004B500D3404200F009F8009A6A
:10167000D20701D34942124200D5404204BD0000C6
:10168000094214D088420FD30122030C01D1000477
:101690001204002300185B418B4200D35B1A5241B5
:1016A000F8D319001000704701000020704708B5FA
:1016B00000F064F908BDF0B40E005E400125ED07AE
:1016C0002E40B446AE0ADF184C18F4423BD2F74223
:1016D00041D2640D43D07F0D38D0E41BC902DB0238
:1016E00029432B43CF0ADB0A0600B61A9F4104D2D6
:1016F000641EB6197F41B6185F416812800D241828
:101700000018844222DAE80C0021B6197F41B61A8B
:101710009F4102D2B6185F413F1C40414941F4D37A
:10172000241C21DD2405B6197F41B61A9F4105D33B
:101730003743C60737430026012F70416141664693
:101740003143F0BC7047FCD1F74205D20020C143C1
:1017500049054908F3E704D00020C143F1E77F0DB4
:10176000FAD000206146ECE72442FAD1401C6141E6
:101770000F03F6D30020E2E7F0B50E005E4001252E
:10178000ED072E40B446AE0ADF184C18F44208D2DA
:10179000F7420ED2640D01D07F0D12D100206146B8
:1017A000F0BD05D1F74201D87F0D05D10020C1431E
:1017B000F0BDFBD1640DF9D00020C14349054908B3
:1017C0008FE0E419C902DB0229432B43DB0A460DF3
:1017D000C00231438E4630B487B295B27D432E0CA1
:1017E000ADB2140C7C43A419260C240425439CB2EE
:1017F0007C43A419190C7943270CC919A4B20F040E
:101800003C43090C000C97B247432E0CBE193543DC
:10181000ADB2170C4743360CBF19A6B2BF193E0430
:101820003543240C3E0C36199FB24743BF19BCB256
:101830003E0C89191F0C47437F183E043443390C72
:10184000704680B297B247432E0CBE193543ADB2F5
:10185000170C4743360CBF19A6B2BF193E043543D7
:10186000240C3E0C36199FB24743BF19BCB23E0C44
:1018700089191F0C47437F183E043443390C7746BF
:101880003F0C90B278432E0C80190604ADB22E4363
:10189000050CA0B22D18120C7A435019020C80B21C
:1018A000240CA4189AB27A43121914042043120C7F
:1018B00089181B0C7B43C91830BCEF0A394203D18D
:1018C000B61940414941641E6F12BF0DE41B0BDB8A
:1018D000FF19BC4211DA240500274208AE417841C5
:1018E000614166463143F0BD641C05D1401C614135
:1018F000CF0201D34908F4E750E75DE780B5FFF771
:10190000A7FC006C02BD124224D0994228D970B5C0
:1019100000251B4202D00C00002109E00024012612
:1019200049186441944200D3A41A7641F8D3310097
:10193000012601E0764109D2001864416D41A41AE4
:101940009D41F7D2A4185D41B619F5D330002200AD
:101950002B0070BD1B42D8D108B500F011F808BDAE
:1019600001D19042D3D202000B0000210020704729
:1019700080B5012000F006F801BDFEE77047FEE7E4
:101980007047FEE780B500BF00BF024A1100182073
:10199000ABBEFBE7260002000000000000000000D4
:1019A0000000000000000000000000000000000037
:1019B0000000000000000000000000000000000C1B
:1019C000000C000C000C000C000C000C000C000CB7
:1019D000000C000C0000000C000C000000000000D7
:1019E0000000001B001B001B001B001B0000000070
:1019F00000000000000000000000000000000000E7
:101A00000000000000008019801980198019C07F33
:101A1000C07F80190033C07FC07F003300330033A4
:101A200000330000000000000000001E003F807531
:101A300080650074003C001E00078005806580659D
:101A40008075003F001E00040004000000000070CC
:101A500000D840D8C0D880D900730006000C801B85
:101A6000C036C066C046C00680030000000000000B
:101A70000000001E003F003300330033001E000C46
:101A8000C03CC066806380618063C03E801C0000F3
:101A9000000000000000000C000C000C000C000C0A
:101AA0000000000000000000000000000000000036
:101AB000000000000000000080000001000300069C
:101AC00000060004000C000C000C000C000C000CC4
:101AD0000004000600060003000180000020001042
:101AE0000018000C000C00040006000600060006AA
:101AF000000600060004000C000C00180010002076
:101B00000000000C002D003F001E0033000000000C
:101B100000000000000000000000000000000000C5
:101B200000000000000000000000000C000C000C91
:101B3000000CC0FFC0FF000C000C000C000C0000EB
:101B40000000000000000000000000000000000095
:101B50000000000000000000000000000000000085
:101B60000000000C000C000400040008000000004D
:101B70000000000000000000000000000000001E47
:101B8000001E000000000000000000000000000037
:101B90000000000000000000000000000000000045
:101BA00000000000000000000000000C000C00001D
:101BB0000000000000000003000300030006000610
:101BC00000060006000C000C000C000C00180018A9
:101BD00000180000000000000000001E003F00335D
:101BE000806180618061806D806D806180618061D5
:101BF0000033003F001E000000000000000000064F
:101C0000000E001E00360026000600060006000634
:101C100000060006000600060006000000000000A6
:101C20000000001E003F807380618061800100031E
:101C30000006000C001800300060807F807F0000EC
:101C4000000000000000001C003E00630063000371
:101C5000000E000E00038001800180618073003F50
:101C6000001E00000000000000000006000E000E34
:101C7000001E001E0016003600360066807F807F42
:101C80000006000600060000000000000000007FC3
:101C9000007F006000600060006E007F8063800154
:101CA000800180618073003F001E00000000000082
:101CB0000000001E003F803380610060006E007FE6
:101CC00080738061806180618033003F001E00006E
:101CD000000000000000807F807F8001000300037F
:101CE00000060006000C000C000C0008001800188C
:101CF00000180000000000000000001E003F80638C
:101D0000806180610021001E003F806180618061F0
:101D10008061003F001E0000000000000000001E67
:101D2000003F00738061806180618073803F801D0F
:101D3000800180610073003F001E00000000000071
:101D400000000000000000000000000C000C00007B
:101D500000000000000000000000000C000C00006B
:101D60000000000000000000000000000000000073
:101D7000000C000C00000000000000000000000C3F
:101D8000000C000400040008000000000000000037
:101D900080008003000E003800600038000E8003D1
:101DA00080000000000000000000000000000000B3
:101DB000000000000000807F807F00000000807F26
:101DC000807F000000000000000000000000000014
:101DD000000000000000000000400070001C000730
:101DE00080010007001C007000400000000000009F
:101DF000000000000000001F803FC071C060C000F4
:101E0000C00180030007000E000C000C0000000C55
:101E1000000C0000000000000000001E003F8031A8
:101E200080718063806F806D806D806F80670060DF
:101E30000032003E001C0000000000000000000E08
:101E4000000E001B001B001B001B80318031803FF7
:101E5000803F8031C060C060C060000000000000B2
:101E60000000007C007E0063006300630063007E6E
:101E7000007E0063806180618063007F007E0000DF
:101E8000000000000000001E003F80318061006003
:101E90000060006000600060006080618031003F91
:101EA000001E0000000000000000007C007F0063B6
:101EB0008063806180618061806180618061006396
:101EC0000063007E007C0000000000000000807FB6
:101ED000807F0060006000600060007F007F006025
:101EE000006000600060807F807F000000000000D4
:101EF0000000807F807F0060006000600060007FE5
:101F0000007F006000600060006000600060000012
:101F1000000000000000001E003F80318061006072
:101F20000060006080638063806180618031803FF9
:101F3000001E0000000000000000806180618061E0
:101F4000806180618061807F807F8061806180614D
:101F50008061806180610000000000000000003F9F
:101F6000003F000C000C000C000C000C000C000CDE
:101F7000000C000C000C003F003F000000000000BF
:101F800000008001800180018001800180018001CA
:101F900080018001806180618073003F001E00002D
:101FA000000000000000C060806100630066006601
:101FB000006C0078007C00660066006380618061D0
:101FC000C0600000000000000000006000600060D1
:101FD0000060006000600060006000600060006001
:101FE0000060807F807F0000000000000000C07162
:101FF000C071C07BC07AC06AC06AC06EC064C06075
:10200000C060C060C060C060C06000000000000030
:10201000000080718071807980798079806D806D19
:10202000806D806580678067806780638063000063
:10203000000000000000001E003F0033806180614E
:102040008061806180618061806180610033003FD8
:10205000001E0000000000000000007E007F806382
:102060008061806180618063007F007E006000602D
:102070000060006000600000000000000000001E22
:10208000003F003380618061806180618061806198
:10209000806580670033803F401E00000000000024
:1020A0000000007E007F8063806180618063007F2C
:1020B000007E00660063006380618061C060000094
:1020C000000000000000000E001F80318031003051
:1020D0000038001E00078003806180618031003F6E
:1020E000001E0000000000000000C0FFC0FF000C48
:1020F000000C000C000C000C000C000C000C000C80
:10210000000C000C000C00000000000000008061CA
:1021100080618061806180618061806180618061B7
:10212000806180618073003F001E0000000000009D
:102130000000C060C060C060803180318031001B11
:10214000001B001B001B000E000E000E0004000010
:10215000000000000000C0C0C0C0C0C0C0C0C0C0FF
:10216000C0CC804C804C805E8052805280738061F5
:1021700080610000000000000000C0C0806080613D
:102180000033003B001E000C000C001E001F003B33
:1021900080718061C0C00000000000000000C0C06D
:1021A0008061806100330033001E001E000C000CB3
:1021B000000C000C000C000C000C000000000000E3
:1021C0000000803F803F8001000300030006000CF8
:1021D000000C0018001800300060807F807F000035
:1021E00000000000000F000F000C000C000C000CA1
:1021F000000C000C000C000C000C000C000C000C7F
:10220000000C000C000F000F000000180018001850
:10221000000C000C000C000C000600060006000676
:10222000000300030003000000000000001E001E69
:10223000000600060006000600060006000600066E
:10224000000600060006000600060006001E001E2E
:102250000000000C000C001E0012003300338061EF
:10226000806100000000000000000000000000008D
:10227000000000000000000000000000000000005E
:10228000000000000000000000000000000000004E
:1022900000000000E0FF0000000000380018000C03
:1022A000000000000000000000000000000000002E
:1022B000000000000000000000000000000000001E
:1022C000000000000000001F803F80618001801F2F
:1022D000803F80618063807FC03800000000000084
:1022E00000000060006000600060006E007F80738E
:1022F00080618061806180618073007F006E00007A
:102300000000000000000000000000000000001EAF
:10231000003F807380610060006080618073003FD7
:10232000001E00000000000000008001800180010C
:102330008001801D803F8073806180618061806149
:102340008073803F801D000000000000000000003E
:10235000000000000000001E003F00738061807FCD
:10236000807F00608071003F001E000000000000C0
:102370000000C007C00F000C000C807F807F000CA5
:10238000000C000C000C000C000C000C000C0000F9
:10239000000000000000000000000000801D803FE1
:1023A000807380618061806180618073803F801D67
:1023B00080018063007F003E0000006000600060DC
:1023C0000060006F807F80718061806180618061CA
:1023D0008061806180610000000000000000000654
:1023E000000600000000003E003E00060006000659
:1023F00000060006000600060006000000000000BF
:102400000006000600000000003E003E0006000638
:10241000000600060006000600060006000600464C
:10242000007E003C00000060006000600060806191
:1024300000630066006C007C0076006300638061CE
:10244000C0600000000000000000003E003E0006EA
:10245000000600060006000600060006000600064C
:10246000000600060006000000000000000000005A
:1024700000000000000080DDC0FFC0CEC0CCC0CC9A
:10248000C0CCC0CCC0CCC0CCC0CC00000000000090
:1024900000000000000000000000006F807F8071DD
:1024A0008061806180618061806180618061000005
:1024B0000000000000000000000000000000001EFE
:1024C000003F807380618061806180618073003F24
:1024D000001E0000000000000000000000000000DE
:1024E000006E007F80738061806180618061807395
:1024F000007F006E0060006000600060000000006F
:1025000000000000801D803F8073806180618061D9
:1025100080618073803F801D800180018001800187
:10252000000000000000000000000067803F00394C
:10253000003000300030003000300030003000004B
:102540000000000000000000000000000000001E6D
:10255000803F80610060007F803F80018061007F5C
:10256000001E00000000000000000000000800182D
:102570000018007F007F00180018001800180018CD
:102580000018801F800F0000000000000000000005
:1025900000000000000080618061806180618061D6
:1025A000806180618063807F803D000000000000CA
:1025B00000000000000000000000C0608031803199
:1025C0008031001B001B001B000E000E00060000E7
:1025D000000000000000000000000000000080DD9E
:1025E00080DD80DD00550055005500770077002222
:1025F00000220000000000000000000000000000B9
:102600000000806100330033001E000C000C001E2F
:102610000033003380610000000000000000000073
:102620000000000080618061803100330033001BB6
:10263000001B001B000E000E000E001C007C007032
:1026400000000000000000000000C07FC07F80018B
:1026500000030006000C00180030C07FC07F00009F
:102660000000000080038007000600060006000648
:102670000006000E001C001C000E000600060006EE
:10268000000600068007800300060006000600061C
:10269000000600060006000600060006000600060A
:1026A0000006000600060006000600060038003C92
:1026B000000C000C000C000C000C000E00070007C2
:1026C000000E000C000C000C000C000C003C00384C
:1026D0000000000000000000000000000000803842
:1026E000807F0047000000000000000000000000A4
:1026F0000000000010B504231940436907248C40F2
:10270000A3438A401A43426110BDC068C021090139
:102710000140481E8041C00F704710B5934B99424D
:1027200001D10C3004E0A030CB0C04242340C018AD
:1027300003688F4C0C40A34311401943016010BD46
:10274000F8B5050000260096002D01D10120F2BD4C
:102750002C0054346068002804D1280000F01DFDCE
:10276000A66026702868816880277F05394011D1CE
:102770008168804A0A403A4382607F4800687F4906
:10278000FEF77EFF400001E00098401E0090009898
:102790000028F9D129688868074008D160681022AC
:1027A00002436260A06801220243A2600126886899
:1027B0006268D20600D4400700D5D0E06068704A55
:1027C00002400220104360608A6880200006D20721
:1027D00020D4CA6818239A43AB681343CB602A6895
:1027E000C021090613699B009B086F680F401F43B7
:1027F00017616A688A420DD041088A420AD0824233
:1028000008D060490F68604B3B40F027BF0317407A
:102810001F430F60296B002900D0C10C2A691040AA
:1028200002D05000400801E0802080030090A87E84
:102830002A7E93036A7ED2031A4343031343194348
:10284000EA680A43009911432C22AA5C57000F43FF
:102850002021695C01290ED1002804D1380080278D
:102860007F02074307E06068202101436160A068A0
:1028700001210143A160686A002806D0E0214900D7
:102880000140A86A084338430700286C696C01437B
:10289000AA6C0A43E86C10433C21695C012902D10F
:1028A0000100012008432968CA68384B13403B43A4
:1028B000CB6029680A69364B1340184308616A6B7C
:1028C00000212868FFF716FFAA6B32492868FFF736
:1028D00011FF2869002806D12868816A0F22D24397
:1028E0000A43826221E08021890388421DD10022AF
:1028F000E16890000B00C3401807000F0F2802D0BA
:10290000521C082AF5D30F20C043012A04D129689C
:102910008A6A1043886208E02A68936AEB695B1E42
:102920005B07DB0E9840014391620220C043296897
:10293000C968194A0A40BA4207D10021A1606168FA
:1029400008400121014361600EE0616808401021E8
:10295000014361600126A0683043A06004E0606824
:1029600010210143616001263000F2BD0000C07CEF
:10297000FFFFC77CE8FFFF7F14000020400D03002D
:10298000FFFEFFFF08270140FFFFC3FF1902FEFF04
:1029900002FCFFDF04FFFF07E7FF3F8370B5040081
:1029A000206880680425284033D15420205C012809
:1029B0002FD02600543601203070200000F096FB06
:1029C0000021020023D17268174B1340AA011A4359
:1029D0007260B1601C2223681A60317021684A68F5
:1029E0001C239A434A606169082921684A6803D117
:1029F000082313434B6001E02A434A60216B0029FE
:102A000004D121684A68102313434B6003E03170FE
:102A100070BD022070BD21688A68564B13401D436B
:102A20008D6070BD00000000FEF1FFFF0068006CCB
:102A30007047F8B50400206805684768A8070FD5F7
:102A4000B8070DD5A06DC00604D4A06D8021090182
:102A50000143A165200000F00BFC02202168086002
:102A60000426354201D0374203D1280732D5380732
:102A700030D5A06DC00603D4A06DF1010143A1655E
:102A80002068FFF742FE00281ED0A07E00281BD140
:102A900020680068000717D52068816801200E4073
:102AA0000BD1216849680C22914322685160A16DC5
:102AB000314A0A401043A06506E0A16D20220A4376
:102AC000A265E16D0843E065200000F0D2FB0C2018
:102AD0002168086028060BD58026374208D0A06DF3
:102AE00071020143A165200000F0C4FB206806606C
:102AF000E8050CD580267600374208D0A06D71021B
:102B00000143A165200000F0B7FB20680660802625
:102B1000B60035420AD0374208D0A06D7102014399
:102B2000A165200000F0A9FB206806601026354250
:102B300015D0374213D0206B002803D02068C0681E
:102B400080070AD0A06DB1010143A165E06D0221AB
:102B50000143E165200000F091FB206806607602E9
:102B6000354006D0374004D0200000F088FB2068B4
:102B70000660F1BDE8FFFF7FFFFEFFFFF1B585B006
:102B800000206A465070019005985422805C01280C
:102B900001D102201EE105985430029001250570F4
:102BA00005980668B068400700D506E101910598D0
:102BB000006903900198406804908749874A8848D3
:102BC00080231B06049C022C039C00D1CBE09C427A
:102BD00001D0844207D101980068B46A4003400BD9
:102BE0002043B06280E0019800680F24470302D1BF
:102BF0004000C50E47E0284244D1870743D445072B
:102C000001D502253FE00825284201D003253AE0FE
:102C1000C70601D5042536E0870601D5052532E033
:102C2000470601D506252EE0070601D507252AE02F
:102C3000C70528D4850501D5092524E0450501D51A
:102C40000A2520E0050501D50B251CE0C50401D5AA
:102C50000C2518E0850401D50D2514E0450401D5A7
:102C60000E2510E0050401D50F250CE0C50301D5A4
:102C7000102508E0850301D5112504E0400301D5A6
:102C8000122500E000250498C006C00E6F4638707B
:102C90000298C768BC46684607780F20B840674668
:102CA00087436846007885403D430298C560019897
:102CB0004068059DED6987087F1CBD4214D3019DC6
:102CC0002D68C006C00E6F463870B76ABC466846AD
:102CD00007780F20B84067468743A80E044068462F
:102CE000007884403C43B46201988068019C256868
:102CF000059C24682D026669AE432840394D054085
:102D0000354365610198046823405ED01368C84369
:102D10001840354B9C4214D180231B04184254D1D7
:102D20001468214008430343136030480068304969
:102D3000FEF7A6FC01900198002846D00198401E9D
:102D4000F8E72C4B9C4202D180235B0404E02A4B21
:102D50009C423AD18023DB03184236D114682140CB
:102D60000843034327E09C4201D0844206D10198E6
:102D70000068B46A4003400B8443B462019804685D
:102D8000234022D01368C8431840174B9C4203D1FC
:102D900013681940194B0CE0164B9C4203D1136881
:102DA0001940174B05E0144B9C420ED11368194093
:102DB000144B03400B43136007E002984068202146
:102DC00001430298416068464570002002990870EE
:102DD0006846407806B0F0BDFFFF3FFE082701407F
:102DE0000400008000FFFF07001000B01400002066
:102DF000400D0300004000B8002000B4FFFF7FFF3B
:102E0000FFFFFFFEFFFFBFFFF1B584B05422805CDF
:102E1000012801D102205DE1049854300190012085
:102E2000019A1070049800688268042300911A4087
:102E300000D020E14C6809680291A74AA74DA94239
:102E400029D129465B059C420CD0C0231B049C421F
:102E500007D1009A9268A24B1340C02212041A4371
:102E600000E00022FFF759FC019840689D490140AD
:102E70000198416080200499096808600098007BEF
:102E8000012804980068416802D180220A43F1E0D9
:102E900080229143E9E059058C4200D1B8E0C0217D
:102EA00009048C4200D0B2E000998A681024022103
:102EB0000825029E8C4FBE4254D1560302D15100C8
:102EC000CC0E48E0D60701D5012146E00A4244D1A4
:102ED0001A4201D0042140E02A4201D003243AE002
:102EE000224201D0042436E0910601D5052432E0C7
:102EF000510601D506242EE0110601D507242AE04B
:102F0000D10501D5082426E0910501D5092422E048
:102F1000510501D50A241EE0110501D50B241AE044
:102F2000D10401D50C2416E0910401D50D2412E042
:102F3000510401D50E240EE0110401D50F240AE03E
:102F4000D10308D4910301D5112404E0510301D524
:102F5000122400E000240121A140A03002681143A6
:102F6000016058E0560302D15100CC0E48E0D6076C
:102F700001D5012146E00A4244D11A4201D0042180
:102F800040E02A4201D003243AE0224201D0042446
:102F900036E0910601D5052432E0510601D506241C
:102FA0002EE0110601D507242AE0D10501D5082419
:102FB00026E0910501D5092422E0510501D50A2416
:102FC0001EE0110501D50B241AE0D10401D50C2413
:102FD00016E0910401D50D2412E0510401D50E2410
:102FE0000EE0110401D50F240AE0D10308D49103A7
:102FF00001D5112404E0510301D5122400E000247E
:103000000121A140A03042681143416003E0002249
:103010000299FFF782FB00980068334988420198C3
:10302000406811D14B49014001984160802149001D
:103030000498006801600098007B012804980068EB
:1030400011D04168444A14E044490140019841606C
:10305000802189000498006801600098007B0128A5
:103060000498006803D142681143416003E041685D
:103070003B4A0A404260009800681849884211D1D2
:1030800004990A68062300990969D468E408640071
:103090001C40A140009C6469D268D20852001340D1
:1030A0009C4003E000990969009A5469049A1268E7
:1030B000203283029B0F8502ED0F581980001018F3
:1030C0000268284B1340090419430C430460002094
:1030D0000199087005B0F0BDFFFF87000000C07CBB
:1030E000FFFF07FCFFFFFEFFFFFF1700F8B505001D
:1030F00028688168012421402AD1102781681B4A51
:103100000A401DD18168184A0A4022438260687EC5
:1031100001281DD000F0B4F806002868006820409F
:1031200016D128688068204005D1286881680E4A39
:103130000A402243826000F0A3F8801B0328ECD3EE
:10314000A86D0743AF65E86D0443EC650120F2BD4F
:103150000020F2BDFFFFFDFFFFFEFFFFFFFFFBFFB3
:10316000FFFDFFFF00F000F0E8FFFF7F1700008089
:1031700081B03A48012142680A43426042681140E6
:10318000009100998021490502680A4302600068A5
:1031900001400091009801B0704710B586B004005E
:1031A0001422002101A800F071F820682C498842FF
:1031B00022D12C4880214903C2680A43C260C268F8
:1031C000114000910099022102680A4302600068E0
:1031D0000840009000980191032002900020039085
:1031E00001A9214800F05CF8002200210C2000F029
:1031F0002AF90C2000F02BF906B010BD10B586B0EE
:1032000004001422002101A800F040F820681749AA
:10321000884220D10220134C21680143216021689B
:10322000084000900098C020800001901220029079
:1032300001200390002004900620059001A90A486F
:1032400000F02EF880208003A1680143A160A168EE
:1032500008400090009806B010BD00003C100240ED
:10326000002401403410024000040050005400408B
:10327000704770477047FEE7704770477047704768
:1032800001480068704700BF0800002010B5040026
:10329000080011000200200000F000F9200010BD1D
:1032A000FCB50022012300932CE0052703E0514FD9
:1032B000B842FAD10327A74037432F604E4C256808
:1032C000DC4325404E68F60300D51D434A4E356069
:1032D000756825404F68BF0300D51D437560474D95
:1032E0002E6826404D68ED0200D51E43434D2E60EA
:1032F0006E6834404E68B60202D526001C00344386
:103300006C60521C0C682300D34066D0009B934035
:1033100001932340F5D04C68022C01D0122C10D11F
:10332000D408A40005192C6A97001C263E400F27DC
:10333000B740BC430F69BC4637006646BE402643D3
:103340002E62066854000327A740FD432E400F79E4
:10335000BF07BF0FA740374307604E68012E05D057
:10336000022E03D0112E01D0122E11D186682E40CC
:10337000CF68A740374387604768019EB743BC4684
:103380004E683709009E3E40964067463E43466081
:10339000C66835408E68A6402E43C6604C68E4007F
:1033A000AFD5174C9508AD0065192E68D7001824C5
:1033B0003C400F27A740BE43A027FF05B84201D1DC
:1033C000002778E70F4FB84201D1009F73E70E4FF7
:1033D000B84200D06BE702276DE7F3BD00690840F3
:1033E00000D00120C0B27047002A01D0816170472F
:1033F00081627047000C00508018024000180240A3
:1034000060180240000400500008005010B5C200CF
:1034100018231340FF249C40E2438907090E99407A
:10342000030004D418489B089B00C01806E0174B03
:103430000007000F083880088000181803681A4039
:103440001143016010BD80B5FFF7E0FF01BD010031
:1034500005D40121C006C00E81400D4801607047AF
:1034600010B5401E80214904884201D3012010BDBF
:10347000084C606003210020C043FFF7C7FF002015
:10348000A0600721216010BD00E400E01CED00E019
:1034900000E100E010E000E0002200BF094202D09D
:1034A000491E4254FCD1704770B5040001D101207F
:1034B00070BD2500403500266878002803D12E70A5
:1034C0002000FFF79BFE242068702068016801221D
:1034D0009143016060686C49014020680161216886
:1034E0006A488A6802408A60E1680129A16801D1BE
:1034F000C24301E0842212020A4321688A60E16823
:10350000022903D1802109012268516021684A689B
:103510005F4B13434B602168CA681040C860206944
:1035200061690143A069000208432168C860E0693D
:10353000216A0143206801602068016801220A4372
:1035400002606E60202068702663AE70002070BD3F
:10355000FEB504000F0016001D0040304078202802
:1035600000D07FE04020205C01287BD0012040215A
:103570006054FFF785FE0190009019230122D103CA
:10358000200000F077FA002869D121202100403185
:103590004870102021004031887000202100403107
:1035A00048606662658560633A48089E618DFF29C0
:1035B0000BD9FF212185009080235B04FF22390075
:1035C000200000F009FB019D11E0628D2285009032
:1035D00080239B04D2B2F2E7FF20208500200090D8
:1035E00080235B04FF223900200000F0F5FA608D93
:1035F00000282DD02A003100200000F067FA0028B2
:103600002DD1606A007821688862606A401C60621F
:103610002148618D09186185218D08182085618DEB
:103620000029E4D00004E2D100953300002280217B
:10363000200000F01FFA002811D1608DFF28CBD8A0
:10364000628D22850020009080239B04D2B2CAE7BD
:1036500031002A00200000F062FA002801D0012089
:10366000FEBD01E00220FEBD20202168C861216866
:103670004A680A4B13404B602100403148700020DB
:1036800088700870FEBD0000FFFFFFF0FF7FFFFFA6
:103690000080000200200080FFFF000000E800FE24
:1036A000FEB504000F0016001D00403040782028B1
:1036B00000D0A2E00898002803D06846808C00283B
:1036C00005D18020800021004031486091E04020F9
:1036D000205C012800D190E0012040216054FFF7D8
:1036E000CFFD0290009019230122D103200000F0A9
:1036F000C1F900287DD12B0032002120210040316A
:103700004870402021004031887000202100403165
:103710004860089860626846808C6085002060631D
:10372000029801900A9800903900200000F036F9C4
:10373000002803D00020402160545AE0608DFF280B
:103740003AD9FF2020850020009080235B04FF22CF
:103750003900200000F040FA0A9E029D2A00310044
:10376000200000F0B3F9002843D1606A0078216896
:103770008862606A401C60628548618D09186185B5
:10378000218D08182085618D002928D0000426D1BC
:103790000095330000228021200000F06BF9002802
:1037A00027D1608DFF280FD9FF20208500200090B1
:1037B00080235B04FF220EE0628D228500200090B2
:1037C00080239B04D2B2C3E7628D22850020009043
:1037D00080239B04D2B23900200000F0FDF9608DF7
:1037E0000028BBD131002A00200000F098F9002801
:1037F00001D00120FEBDFFF737FF0220FEBD000013
:10380000FEB584B0060040304178202900D0BBE0EE
:103810000C99002902D00D9F390003D18021890025
:103820004160A0E04020305C012800D1ACE03500D0
:10383000403501202870FFF723FD040030688069BF
:1038400000040DD5FFF71CFD001B1A28F6D320201D
:1038500069680143696068700020A870287082E080
:1038600002966846038B828A3046403003902220BD
:1038700068704020039988700026039846600C9871
:1038800002994862029847850298466301940E980F
:1038900000906846018A029800F0AEF8002802D035
:1038A000039806705FE08020400401903948029937
:1038B000498DFF293AD9FF21029A11850090019B79
:1038C000FF226846018A029800F086F9029D0E9F49
:1038D00000943B0000220421280000F0CBF80028CF
:1038E00041D12868406A696A0870686A401C686249
:1038F0002749288D401828856A8D51186985698D5A
:10390000002926D0000424D100943B00002280210D
:10391000280000F0AFF8002825D1688DFF280DD9C8
:10392000FF2028850096019BFF220DE002994A8D19
:103930000A85009080239B04D2B2C2E76A8D2A8553
:10394000009680239B04D2B26846018A280000F0CA
:1039500043F9688D0028BBD139002200280000F00F
:10396000DEF8002801D001200FE020202968C8617E
:1039700029684A68084B13404B6029004031487061
:10398000002088700E7000E0022007B0F0BD00003B
:10399000FFFF00000024008000E800FEF8B50600EC
:1039A00015001C00079F2B48009080235B04E2B2A7
:1039B000300000F011F93A000699300000F086F866
:1039C000002817D1012C09D0280A316888623A00F2
:1039D0000699300000F07AF800280BD1EDB230687B
:1039E00085620097069B00228021300000F042F89B
:1039F000002800D00120F2BDF8B5060015001C001B
:103A0000079F144800900023E2B2300000F0E4F871
:103A10003A000699300000F059F8002817D1012C1F
:103A200009D0280A316888623A000699300000F00F
:103A30004DF800280BD1EDB2306885620097069BE7
:103A400000224021300000F015F8002800D00120AD
:103A5000F2BD00000020008000688169890701D55F
:103A600000218162012182690A4002D182691143E9
:103A700081617047F8B5002405000F0068460270A8
:103A80001E00286880693840B84201D1012000E05A
:103A9000002069460978884216D10020C04386423A
:103AA000EFD0FFF7EDFB0699401A864201D3002EB6
:103AB000E7D128004030202142680A43426041702B
:103AC000847004700120F2BD0020F2BD70B50400C6
:103AD0000D0016002068806980071ED4320029007E
:103AE000200000F040F8002801D0012070BD002027
:103AF000C0438542EED0FFF7C3FB801B854201D354
:103B0000002DE7D120004030202142680A43426066
:103B10004170002181700170E7E7002070BDF8B5A9
:103B2000202504000E00170020688069284018D165
:103B30003A003100200000F016F800280FD1FFF7FE
:103B40009FFBC01B864201D3002EEDD120004030E8
:103B50004168294341604570002181700170012056
:103B6000F2BD0020F2BDF8B5102403689B69234024
:103B700030D005000F00009220262868816931406E
:103B800011D10020C0438742F7D0FFF779FB00999D
:103B9000401A874201D3002FEFD1280040304168FE
:103BA0003143416010E0C4612868C6612800FFF716
:103BB00053FF28684168114A0A404260280040309B
:103BC000416804220A4342604670002181700170FE
:103BD0000120F2BD0020F2BDF0B5059C00684568EB
:103BE000660D074F3743BD438905890D29431204EC
:103BF0000A4313431C434460F0BD000000E800FE8C
:103C0000FF63FF03FEB507001BD0A84C3878C00740
:103C100019D5A16838200840E1688025AD02102838
:103C200008D18807800F032806D079686808814288
:103C300034D13BE00828F8D12068054003D07868EB
:103C4000002800D1B7E1387880077BD5A0683821FB
:103C50000140E268B948BA4D10294ED19207920F3F
:103C6000022A4CD0F968002900D196E0216808406A
:103C70003969014321602068A10D01432160FFF7EC
:103C8000FFFA3E0007002068400500D57DE0FFF701
:103C9000F7FAC01B0328F6D30320FEBDA022D202F0
:103CA000914207D1216882000A43226021680843BB
:103CB000206007E02068A349014021602068A249F4
:103CC00001402160786800280BD0FFF7D9FA060080
:103CD00020682840B7D1FFF7D3FA801B6528F7D3B7
:103CE000DAE7FFF7CDFA060020682840ABD0FFF7EF
:103CF000C7FA801B6528F7D3CEE70029B2D1226826
:103D0000520502D5FA68002A3ED0626815407A69E9
:103D100012022A43626000290ED1216808403969E5
:103D200001432160A648012122689204520F91406C
:103D3000FDF7A6FCA3490860A348006800F04EFA0E
:103D4000002821D10225387800070AD5A06838213B
:103D50000140182931D1206E284002D0B8690028CE
:103D600012D03878400700D4A9E000200190A06864
:103D700038210140202942D1E06D054000D19EE06C
:103D8000B868002800D09AE015E1606805407069C5
:103D90000002284360603700D4E720688B49014067
:103DA0002160FFF76DFA050020684005CAD5FFF7CE
:103DB00067FA401B0328F7D36EE7B8690028206E26
:103DC0000ED0012101432166FFF75AFA0600206E4A
:103DD0002840C6D1FFF754FA801B0328F7D35BE7CE
:103DE000012188432066FFF74BFA0600206E284029
:103DF000B7D0FFF745FA801B0328F7D34CE7E80656
:103E0000E16B014008D1E16B0143E163E16B0840E4
:103E100000900098012001906D4D2868C00512D4D3
:103E2000A00D00902868009901432960FFF728FA47
:103E3000060028680099014005D1FFF721FA801B90
:103E40000328F6D328E7B8680121012805D0052802
:103E5000E06D06D104220243E265E06D0143E165B5
:103E600005E08843E065E06D04218843E0650226B3
:103E7000B86800280CD0FFF703FA0500E06D304069
:103E800016D1FFF7FDF9401BA6498842F6D303E798
:103E9000FFF7F6F90500E06D304009D0FFF7F0F9C3
:103EA000401BA0498842F6D3F6E600BF001002404E
:103EB0000198002803D0E06B9B490140E163F86959
:103EC00000287AD0A16838220A40102A54D08026CF
:103ED000B60496490228206838D101402160FFF7D6
:103EE000CFF905002068304005D0FFF7C9F9401B25
:103EF0000328F7D3D0E6E0688D490140386A0843CB
:103F0000796A0143B86A00020843F96A0143386BD1
:103F10000843E0602068710801432160E068F10017
:103F20000143E160FFF7ACF905002068304044D15F
:103F3000FFF7A6F9401B0328F7D3ADE6FFC7FFFF45
:103F4000FF80FFFFFFFFFEFFFFFFFBFF014021603F
:103F5000E06803218843E060E06897490140E16040
:103F6000FFF78EF905002068304026D0FFF788F96A
:103F7000401B0328F7D38FE601281CD0E068810797
:103F8000890F3A6A914216D1702101407A6A9142B2
:103F900011D1FE21C9010140BA6A120291420AD12F
:103FA000F82189030140FA6A914204D1400F400789
:103FB000396B884201D00120FEBD0020FEBD00000B
:103FC0000024F400140000200C000020FFFEFFFF7E
:103FD00000700040F8B5070066D00091774800688F
:103FE0004007400F884218D2744C2068072188434C
:103FF000009901432160FFF743F9009D0600206806
:104000004007400FA84207D0FFF73AF9801B454907
:104010008842F4D30320F2BD00953968694C022030
:1040200001420CD0490704D5A168E022D2010A431D
:10403000A260A168624A0A40B9681143A1600725DD
:10404000ED433978C90732D57968012918D120683C
:10405000800329D5A06828400143A160FFF710F92B
:104060003E000700A068382101407068C00081420E
:104070001CD0FFF705F9C01B2A498842F2D3C9E7D3
:10408000022902D12068800103E0002903D12068C1
:104090004005DFD408E0032903D1226E1040D9D1B6
:1040A00002E0E26D1040D5D10120F2BD370000984A
:1040B000424909684907490F884217D23F480068BA
:1040C0000540009828433D490860FFF7D9F8009D56
:1040D00006003A4800684007400FA84206D0FFF7A4
:1040E000CFF8801B0F498842F3D393E73878400715
:1040F00005D5A06834490140F8680843A06000F085
:1041000019F83249A2681205120F9200895CC9069B
:10411000C90EC8402E4908602E48006800F05EF8BD
:10412000F2BD000089130000FFFFFFEFFFFFFFFE5D
:104130008C80C11F30B507212748224C3823A26844
:104140001A4006D123680122DB0A19408A40110077
:104150001EE04208A5681D40082D01D1100030BDA9
:10416000A5681D40102D16D1E368E5682D0929408A
:10417000491C7F259B079B0F032B00D11000FDF7E7
:104180007FFAE168090A0D406843E168490F491C5C
:10419000FDF776FA30BDA0681840202802D18020B3
:1041A000000230BDA0680340182B02D1FA20C001E4
:1041B00030BD002030BD0000FFFFFEEF00200240B8
:1041C000FFF0FFFF00100240FF8FFFFF08520008C2
:1041D000140000200C0000200024F40070B506003C
:1041E00000240F4DA968002916D0FA208000FDF7A1
:1041F00047FA01000B480068FDF742FAFFF730F973
:10420000002809D1042E07D2002231000020C0432B
:10421000FFF719F96E6000E00124200070BD00BFB7
:104220000800002014000020F0B589B000F09CF9CF
:1042300000F04CF914216846FFF72EF9BB480168DD
:1042400004220A4302600168042211400591059985
:1042500001270168394301600168394005910599DA
:10426000016802220A4302600068022108400590AA
:10427000059800224021A020C005FFF7B5F8BC0337
:10428000AB4D002221002800FFF7AEF86008009037
:104290000026019602976946A648FFF701F84020DC
:1042A00000900197029603966946A020C005FEF78C
:1042B000F7FF009401970296039669462800FEF7DF
:1042C000EFFFA0090090019602976946A020C00563
:1042D000FEF7E6FF3020009001960297694628001D
:1042E000FEF7DEFF182103A8FFF7D6F86846002185
:1042F000002200230EC0904D904828602004686082
:10430000AE60EE602E61042068612E83AE76EF61B0
:1043100020216E546E62AE622C216E542E636E6349
:10432000AE633C216E54EE642800FEF709FAC0200B
:104330000004049003A92800FEF766FD8048009061
:104340000196029669462800FEF718FC2C00683496
:104350007C48E0617C4820626662A762E662266370
:104360006663A663E66328008430FFF79DF80021AA
:104370002800843000F00CF900212800843000F07F
:1043800024F900F04BF9002000F006FBFA20800031
:1043900000F020FC1720662168526C4864216852A6
:1043A0002770FA20800002900620019028006430D7
:1043B000009001230022A02128008430FFF770F92B
:1043C000E074FA20800002900420019028007030F0
:1043D000009001230022A02128008430FFF710FA6A
:1043E000E0744C2020735020607303202071022061
:1043F0006071A771E671FA2080000290042001909C
:1044000028006C30009001230022A0212800843075
:10441000FFF746F9E074FA20400000F0DBFBFF20D4
:1044200020726072A072E072FA2080000290042074
:10443000019028007030009001230022A021280064
:104440008430FFF7DDF9E07406E000224021180017
:10445000FEF7CAFF00F066FA3D480078002813D046
:104460003B490E702800FEF799FA00F01FFBA0747C
:104470000F2808D0217C012903D100F035FB60749E
:1044800002E0277400E02674324800780028E3D068
:1044900030490E70A08A00F0B1FBE08200F0D9FB39
:1044A000208300F0F9FB02002B484261A023DB05CA
:1044B00010002A49496900F0FBFB05D928484069EA
:1044C000110000F0F5FBC0D80122BFE710B598B08D
:1044D00034210BA8FEF7E0FF6846002100220023EC
:1044E00000241EC01C21FEF7D7FF8020800000F0B2
:1044F000F3FB02200B90FE300E900F9440201090A2
:1045000012940BA8FFF77EFB072000900194029401
:10451000039400216846FFF75DFD1248049007945C
:10452000099404A800F0FEFB18B010BD341002403E
:104530000004005000080050400500200024014005
:1045400000020024005400405B3D300077FF000073
:10455000300100202C010020940000207C0000206D
:10456000640000204040000010B5002407480168A6
:10457000820D0A4302600020FFF730FE002801D0C0
:10458000012401E0FEF7F4FD200010BD00200240F0
:1045900070B5020040325378202B14D14023C35C05
:1045A000012B10D001231370242454700468256853
:1045B0009D43256004682568164E2E4026600468D9
:1045C000256829431CE0022070BD70B5020040320E
:1045D0005378202B12D14023C35C012B0ED0012332
:1045E000137024245470046825689D432560046872
:1045F0002568094E2E400902314301E0022070BDBA
:104600002160006801680B43036020205070002087
:10461000107070BDFFEFFFFFFFF0FFFF80B5AE220F
:104620000021782000F06EF920220021782000F08F
:1046300069F910220021782000F064F9B0220021ED
:10464000782000F05FF9C8220021782000F05AF9A4
:1046500000220021782000F055F910220021782056
:1046600000F050F940220021782000F04BF981221F
:104670000021782000F046F9FF220021782000F088
:1046800041F9A1220021782000F03CF9A622002166
:10469000782000F037F9A8220021782000F032F9C4
:1046A0003F220021782000F02DF9A422002178205B
:1046B00000F028F9D3220021782000F023F900220D
:1046C0000021782000F01EF9D5220021782000F08A
:1046D00019F9F0220021782000F014F9D9220021E4
:1046E000782000F00FF922220021782000F00AF94A
:1046F000DA220021782000F005F91222002178202A
:1047000000F000F9DB220021782000F0FBF82022E5
:104710000021782000F0F6F88D220021782000F0AA
:10472000F1F814220021782000F0ECF8AF220021EB
:10473000782000F0E7F82E220021782000F0E2F83F
:10474000002000F028F800F007F85D480021016023
:1047500001214171012002BD38B50024594D2200CC
:10476000503AD2B20021782000F0CCF8002200218B
:10477000782000F0C7F810220021782000F0C2F85D
:104780008023E0012A184021782000F0A4F8641C5E
:10479000082CE4DB31BD80B5002801D1002200E007
:1047A000FF228021C9004748FEF778FE01BD80281E
:1047B00000DB704710B5402911DA424CCB08DB0111
:1047C000C018201801234907490F8B403C4909793B
:1047D000002905D0002A05D001789943017010BD49
:1047E000012AF9D101780B43037010BD344A1080BF
:1047F00051807047FEB50F00314909886B465980DA
:10480000694649883B78C918802909DA2C494988C2
:104810006B46D9806946C9887B78C918402901DB75
:104820000020FEBD0021029169460870150002E0DB
:104830000298401C029079780298884225D27868C4
:104840006A461278203A4A43029951184900465A5A
:1048500000246846C08802994018694688803878E4
:104860008442E5D26846408800193100A14009041D
:1048700003D46A1E9241D20F00E02A00694689885B
:1048800080B2FFF794FF641CE9E7684640883978F6
:1048900040180B49088068460078FEBD70B50400DA
:1048A0000E00150000E0641C2078002806D02A00C5
:1048B0003100FFF79FFF21788842F4D0207870BD47
:1048C000100600204001002080B50020FFF763FFA4
:1048D000FFF742FF01BD78B5C1B001AC21700021E6
:1048E00003E0555C66187570491C9942F9DB642138
:1048F00000915B1C9BB201AA01000948FEF728FE4B
:1049000042B070BDE0B501AB19705A7064210091DE
:10491000022301AA01000248FEF71AFE07BD0000AB
:10492000C405002078B587B0984E994C994D2878E9
:10493000002804D003280ED0042817D028E0218DA9
:10494000E08CFFF753FFE06A00F09EFA02000B00D4
:104950002100183114E0A98A688AFFF747FFA86987
:1049600000F092FA02000B00291D09E0218AE0897B
:10497000FFF73CFF606900F087FA02000B0021009E
:10498000684600F09BFA012231006846FFF786FF77
:10499000FFF7E2FE08B070BDF0B587B007007D4EAE
:1049A000307870707A4C794D06D0022F32D01AD3FD
:1049B000042F59D038D376E0FFF786FF0021052079
:1049C000FFF714FF0122290075A0FFF767FF218D73
:1049D000E08CFFF70BFFE06A00F056FA02000B00D4
:1049E0002100183155E0FFF76FFF00211720FFF776
:1049F000FDFE0122290000BF6CA0FFF74FFFB18A26
:104A0000708AFFF7F3FEB06900F03EFA02000B0077
:104A1000311D3EE0FFF758FF00211720FFF7E6FEAB
:104A20000122290064A028E0FFF74EFF00211B208F
:104A3000FFF7DCFE0122290062A0FFF72FFFB18AF9
:104A4000708AFFF7D3FEB06900F01EFA02000B0077
:104A5000311D684600F032FA012229006846FFF74E
:104A60001DFFFFF75FFF1EE0FFF72EFF00211B2059
:104A7000FFF7BCFE0122290054A0FFF70FFF218A97
:104A8000E089FFF7B3FE606900F0FEF902000B0059
:104A90002100684600F012FA012229006846FFF75B
:104AA000FDFEFFF759FE377007B0F0BD38B50024A2
:104AB00080214900A020C005FEF790FC002801D10C
:104AC00001240FE0344D10212800FEF787FC002858
:104AD00001D1022406E020212800FEF77FFC0028F7
:104AE00000D10324200032BD10B50200FE2189054B
:104AF0002A48284C2378002B06D0022B26D00FD32F
:104B0000042B32D014D33EE0012A02D0032A24D051
:104B100039E04021A020C005FEF766FC022021E01C
:104B2000012A1ED02FD3032AF8D02CD2032019E05B
:104B3000012A04D027D3032A03D00ED323E0A0698F
:104B400000E0A16900F0DAF9A0611CE0012A04D0BC
:104B500019D3032A05D002D315E0012002E0042076
:104B600000E00020FFF718FF0DE0094C012A04D0F7
:104B700009D3032A03D0D1D305E0606900E061695D
:104B800000F0BCF96061012010BD000000000020B1
:104B90007C0000206000002000040050000080BF66
:104BA00054454D5045524154555245004D494E20B3
:104BB00054454D50000000004D41582054454D5083
:104BC00000000000534554204D494E0053455420E9
:104BD0004D41580038B50500FEF752FB0400002097
:104BE000C043854202D0044880682D18FEF748FB78
:104BF000001BA842FAD331BD0800002010B50022E6
:104C000000231A491C06E40D0C5B844201D21A00F1
:104C100007235B1CDCB2062CF4DBD3B2002B15D0CF
:104C2000072B13D01206920D8C1800F025F821697D
:104C300000F0F4F9E16A00F061F900F025F90022D2
:104C40000B4BFCF72FFCFCF7E9FB00E0094800B236
:104C500010BD00B501000748814205D0C8004018CA
:104C60000521FCF7F9FC203000B200BD180000203F
:104C70000000E03F102700009D2102000AD002D46E
:104C8000491E9218FCD5C905100A1206524100D3DC
:104C9000012A4841704700009D210200EED5524292
:104CA000F446FFF7EBFF0122D20710436047FEE70F
:104CB0000CB4012212060318DA4207D84B18DA4264
:104CC00004D802000A43921802D281420CBC7047F9
:104CD000FCD088420CBC704710B50E4C21680E4ABF
:104CE0000A4002432260610D884210D10B480068DF
:104CF000062148430A49FCF7C3FC401C00E0401E63
:104D00006169490503D50028F9D1032010BD0020B1
:104D100010BD000000700040FFF9FFFF14000020EC
:104D200040420F00FEB5040000206A4610704E4D50
:104D30002168890355D5019080204005296B0140E9
:104D400008D1296B01432963296B08400190019820
:104D50000120019045480068A90D014343480160C6
:104D6000FEF78EFA060041480068C00505D4FEF73C
:104D700087FA801B0328F6D323E0296DC02080002A
:104D800008403B4F00280ED0A16988420BD0286D07
:104D90003840296D802252020A432A65296D354A1E
:104DA0000A402A652865C0070FD5FEF769FA060094
:104DB000286D800709D4FEF763FA801B2E498842CC
:104DC000F6D303206946087004E0286D0740A06907
:104DD000384328650198002803D0286B27490140F3
:104DE00029632078C00705D5A86C03218843616832
:104DF0000143A9642078800705D5A86C0C2188435D
:104E0000A1680143A9642078400605D5A86C1C4917
:104E10000140E0680843A8648020C0012168014087
:104E20000DD0A96C8900890862690A43AA64616986
:104E30000204914203D1296882000A432A60216852
:104E400009050DD5A96C0F4A0A4021691143A964CF
:104E50002169814204D128688021490201432960E7
:104E600068460078FEBD00000C1002400070004053
:104E7000FFFCFFFFFFFFFEFF89130000FFFFFFEFB6
:104E8000FFCFFFFFFF3FFFFF012212060118CA42BA
:104E90000AD28A420DD83822120609098918C20F8F
:104EA000D20711434007704700D049080909014360
:104EB00001E0C10FC90700207047FEE70CB418B528
:104EC00083B004000A0006A802900194002000901C
:104ED00002AB01A9084878441E30FBF7EDF8002129
:104EE000019A1170002801D40198001B04B00199A7
:104EF00010BC03B0084700BFF7C3FFFF0122D20771
:104F000003004B402ED4431A01D2C01AC91830B442
:104F10004B180418240E1B0E22D0FF2C20D0E31AAD
:104F2000182B1DDC09021143C40D641E000210433E
:104F300094461925ED1A0A00AA40D940451801D314
:104F40006D08A41CE405D209280A2D062A436546EB
:104F5000AA41604103181B0EFF2B01D3C00DC005F1
:104F600030BC7047514006E05140CCE70122D207E7
:104F700003004B40F8D4431A03D2C01AC91850405A
:104F8000514030B44B18090211430418240E1B0E73
:104F900040D0FF2C3AD025009D410BD31ED8C50D23
:104FA0004002401A0BD3ED050100400AC9059141AA
:104FB0006841D5E7C50D40024918401AD0D00121FB
:104FC0004008491C0018FCD58C4204D36D1A000A15
:104FD000ED054019C4E7E8051040C1E7182DBFDC16
:104FE000AC1C0D00E140E5414D40012D4941C40D8F
:104FF00000021043451A01D46D199543641EE4055F
:10500000280A2D069541604130BC7047FF2BA7D17F
:10501000D843A5E72442A3D10020A1E730B405007E
:105020004D400122D20715404B180418240E2ED0F3
:105030001B0E32D0FF2C34D0FF2B3AD0E4180002E4
:10504000090210431143000A090A9446C2B24A43B6
:10505000000AC3B24B43000A4843110A5B181A43C3
:10506000D2B2190A091801D44918641E080A7F3CF3
:1050700023DBFE2C08DAE405090611436346994157
:105080006041284330BC7047FF20C005F9E7280085
:105090001B0EFF2BF6D1D043F4E72800FF2CF1D1F3
:1050A000F9E74002F7D1FF2B01D14902F3D1E00526
:1050B000E7E7D8054902E4D0EDE743020020641C8D
:1050C000DFD15B129B1CDCD9D805DAE77047FEE71D
:1050D00070477047F8B500F049F820492048C28869
:1050E00052186B461A8001221B88002B02D10270D5
:1050F0006C46228003895B181C0401D14270052391
:1051000044896418250401D182700A2485896D18A8
:105110002E0401D1C2703225C6897618370401D118
:1051200002716426078A79180F0402D14271FA21AC
:1051300089006A461288C280038144818581C681C4
:105140000182F1BD10B5074C2000FDF76FFC064948
:1051500008802000FDF76DFC10BD0000FFFF00007F
:105160002C01002040050020BC05002002480168F9
:10517000826889180160704708000020686A6C74B2
:105180007A4C00007072696E74665F733A20256E07
:1051900020646973616C6C6F776564007072696E0E
:1051A00074663A2062616420256E20617267756DB5
:1051B000656E74007072696E74665F733A20626126
:1051C0006420257320617267756D656E7400000040
:1051D000000000007072696E74665F733A2062614D
:1051E0006420256C7320617267756D656E740000B4
:1051F000000000006E616E004E414E00696E660058
:10520000494E46003000FEE70000000000000000AC
:10521000000000000000000000000000000000008E
:10522000000000000000000001000000020000007B
:10523000030000000400000006000000070000005A
:10524000080000000900000070B40123002413E0EE
:105250000168001D194202D04D466D1E49190C60AF
:10526000091D121F042AFAD20D00960701D50C80E1
:10527000AD1C1A4000D02C700268001D002AE7D136
:1052800070BC704710B5074979441831064C7C440E
:10529000163404E0081D0A68891888470100A142F5
:1052A000F8D110BD08000000240000009DFFFFFFA2
:1052B000DC040000400100200000000017BFFFFFD9
:1052C000AB0000004E0100000000002000F00DF8CF
:1052D000002801D0FFF7D6FF00BF00BF002000BFAD
:1052E00000BFFEF7A1FF00F002F80120704780B573
:1052F00000F002F801BDFEE707463846FCF742FB26
:10530000FBE7FF2902D90020C0437047017001204C
:1053100070470078401E8041C043C00F7047FEE7D1
:1053200001488047014800473153000841530008B5
:1053300080200005014908607047000008ED00E08A
:1053400000BF00BF00BF00BFFFF7C0FFFEE7FEE7E2
:10535000FEE7FEE7FEE7FEE7FEE7FEE7FEE7FEE725
:10536000FEE7FEE7FEE7FEE7FEE70010070B120090
:1053700000981900080001120405220109300E24CA
:10538000F400870FD90E3D0C90053003DB010415A6
:10539000201800004C8DB0BDF54A19BDF1BDBFBC51
:1053A000E8BC06BD2B3064BD4AEBCFBD1E201612F3
:1053B0005697438881EA42ABA8924228AFAD425249
:1053C000EBD242B9CAFC421C300325332E3066436F
:1053D000222D0143001E66F12018F002076A5300D7
:1053E000080452FF01E34E1314100100006614215B
:1053F00042F00316AC00002000014713531443038E
:10540000533C8101000A010005000A0032006400DB
:02541000E803AF
:04000005080053415B
:00000001FF
